:0300000002027E7B
:0C027E00787FE4F6D8FD7581280202C5E7
:10057200E4F58E758911758A84758CFFC28CD2A9B7
:03058200D28C22F6
:1003D0008F287E00EF6408700475270122EF640700
:1003E0004E700475270222EF640C4E7004752704CA
:1003F00022EF64114E700475270822EF64164E70C8
:100400000475271022EF641B4E700475272022EF1D
:1004100064204E700475274022EF4E7002F52722AB
:100497007591FF7592001205A31205721205857BEF
:1004A700FF7A0379D012059743CF10D2AF43CF100D
:1004B70075900012055BE527640170F17590FF8068
:0104C700EC48
:03000B00020420CC
:10042000C0E0C0F0C083C082C0D075D000C000C0A2
:1004300001C002C003C004C005C006C007758A8899
:10044000758CFF120541D007D006D005D004D0032B
:10045000D002D001D000D0D0D082D083D0F0D0E074
:010460003269
:060461000423000000006E
:0A05A300E4F526F525F524F52322E2
:10054100AF26AE25AD24AC23EF2401F526E43EF51C
:0A05510025E43DF524E43CF52322E7
:0905AD00AF26AE25AD24AC2322DB
:100525008F228E218D208C1F1205AD12018CAF22DA
:0C053500AE21AD20AC1F9000040201A616
:060003001205AD02018CA4
:1004C8008B1F8A20892190000412015C1201CAC383
:1004D800E5269BFBE5259AFAE52499F9E52398F8A2
:1004E800C312014BE440047F018001FFFEFDFC22A2
:100467000115FF60280000000000000001020304DE
:1004770005060708090A0B0C0D0E0F1011121314AD
:0F04870015161718191A1B1C1D1E1F20212223C2
:10030A00E4F51FF5207F0112037BEF7005052075C8
:10031A001F017F0212037BEF70050520751F027F04
:10032A000312037BEF70050520751F037F04120378
:10033A007BEF70050520751F047F0512037BEF70A4
:10034A00050520751F057F0612037BEF7005052042
:10035A00751F067F0712037BEF70050520751F07BF
:10036A00D3E5209401748094804003751FFFAF1F6A
:01037A002260
:100585001204F8E4F510FB7A007916FFFEFDFC0273
:0205950005253A
:10000E007B007A0079161204C8EC4D4E4F70037FB8
:10001E00FF227B007A0079167FA07E007D007C0097
:10002E0012052512030A8F1EEFF470037FFF22E5DF
:10003E001014603014606C1470030200FB24036013
:10004E0003020145E51E7002FF22851E157B007A14
:10005E000079087FA07E007D007C001205257510BA
:10006E0001020148E515651E60030201457B007A19
:10007E000079081204C8EC4D4E4F70030201487B04
:10008E00007A0079087F107E277D007C00120525FE
:10009E00751002E51575F005A42400F582E4340010
:1000AE00020140E515651E6012E4F510E51575F0C8
:1000BE0005A42401F582E4340080777B007A007970
:1000CE00081204C8EC4D4E4F60707B007A00790820
:1000DE007FA07E007D007C00120525751003E515BE
:1000EE0075F005A42402F582E434008045E515651B
:1000FE001E6012E4F510E51575F005A42404F582D2
:10010E00E43400802D7B007A0079081204C8EC4D8F
:10011E004E4F60267B007A0079087FA07E007D001E
:10012E007C00120525E51575F005A42403F582E47F
:0C013E003400F583E0FF22E4F5107FFFA1
:01014A002292
:0C059700EA494B60068B128A138914227B
:10055B0012000E8F11E513451445126009851482A4
:07056B008513831201EE224B
:10037B00EFFD7C0064017005A2A033FF22ED640247
:10038B004C7005A28133FF22EFFD7C0064037005E6
:10039B00A2A233FF22ED64044C7005A28333FF222B
:1003AB00EFFD7C0064057005A2A133FF22ED64060E
:1003BB004C7005A28233FF22EF64077005A28033D5
:0503CB00FF227FFF226C
:1004F80053A1FE43A201539AFD439B0253A1FB4320
:10050800A204539AF7439B0853A1FD43A202539AAE
:0D051800FB439B04539AFE439B017F01228D
:10028A00020497E493A3F8E493A34003F68001F2EF
:10029A0008DFF48029E493A3F85407240CC8C33375
:1002AA00C4540F4420C8834004F456800146F6DF44
:1002BA00E4800B0102040810204080900461E47E6F
:1002CA00019360BCA3FF543F30E509541FFEE49339
:1002DA00A360010ECF54C025E060A840B8E493A300
:1002EA00FAE493A3F8E493A3C8C582C8CAC583CA2B
:1002FA00F0A3C8C582C8CAC583CADFE9DEE780BEE3
:010496000065
:10014B00EB9FF5F0EA9E42F0E99D42F0E89C45F00A
:01015B002281
:10015C00BB010DE58229F582E5833AF5830201FCAA
:10016C005007E92582F80201F0BBFE07E92582F869
:10017C00020208E58229F582E5833AF5830202142E
:10018C00BB010789828A830202665005E9F80202E4
:0A019C005ABBFE05E9F802027222C8
:1001A600BB010DE58229F582E5833AF583020266F5
:1001B6005007E92582F802025ABBFE07E92582F8B4
:0401C600020272229D
:1001CA00BB010789828A830202315005E9F80202DB
:1001DA0024BBFE05E9F802023D89828A8302024AAB
:0601EA008A838982E473A0
:0C01F000E6FC08E6FD08E6FE08E6FF223B
:0C01FC00E0FCA3E0FDA3E0FEA3E0FF2276
:0C020800E2FC08E2FD08E2FE08E2FF2232
:10021400E493FC740193FD740293FE740393FF2230
:0D022400E6FB08E6F908E6FA08E6CBF8224A
:0C023100E0F8A3E0F9A3E0FAA3E0FB2250
:0D023D00E2FB08E2F908E2FA08E2CBF82241
:10024A00E493F8740193F9740293FA740393FB220A
:0C025A00ECF608EDF608EEF608EFF622D0
:0C026600ECF0A3EDF0A3EEF0A3EFF0220B
:0C027200ECF208EDF208EEF208EFF222C8
:00000001FF
